:1010000000000420B5120000DD120000DF12000015
:10101000E1120000E3120000E512000000000000F1
:10102000000000000000000000000000E7120000C7
:10103000E912000000000000EB120000ED120000B9
:101040004174000091E50400EF120000EF1200006F
:10105000EF120000EF120000156D0000EF1200000B
:10106000EF120000EF120000EF120000EF1200007C
:10107000EF12000071DC0300EF120000EF1200001D
:10108000EF120000E9570000EF120000EF1200001D
:10109000EF120000EF120000EF120000EF1200004C
:1010A000EF120000EF120000EF120000EF1200003C
:1010B000EF120000EF12000000000000000000002E
:1010C000EF120000EF120000EF120000EF1200001C
:1010D0007DC90300EF120000EF1200003D8D0000FB
:1010E000EF120000EF120000EF12000000000000FD
:1010F00000000000EF12000000000000EF120000EE
:1011000000000000000000000000000000000000DF
:1011100000000000000000000000000000000000CF
:1011200000000000000000000000000000000000BF
:1011300000000000000000000000000000000000AF
:10114000000000000000000000000000000000009F
:10115000000000000000000000000000000000008F
:10116000000000000000000000000000000000007F
:10117000000000000000000000000000000000006F
:10118000000000000000000000000000000000005F
:10119000000000000000000000000000000000004F
:1011A000000000000000000000000000000000003F
:1011B000000000000000000000000000000000002F
:1011C000000000000000000000000000000000001F
:1011D000000000000000000000000000000000000F
:1011E00000000000000000000000000000000000FF
:1011F00000000000000000000000000000000000EF
:1012000010B5054C237833B9044B13B10448AFF340
:1012100000800123237010BD0003002000000000A7
:10122000BCE7050008B5034B1BB103490348AFF306
:10123000008008BD0000000004030020BCE705009A
:10124000154B002B08BF134B9D46A3F5803A002198
:101250008B460F461348144A121A53F04EFF0F4B99
:10126000002B00D098470E4B002B00D09847002051
:10127000002104000D000D48002802D00C48AFF3F7
:10128000008053F0B7FE2000290009F035F953F033
:101290008BFE00BF000008000000042000000000DA
:1012A0000000000000030020D042012000000000E8
:1012B000000000000649074A074B9B1A03DD043B68
:1012C000C858D050FBDC09F0B7FAFFF7B9FF0000AF
:1012D0004CE805000800002000030020FEE7FEE7C0
:1012E000FEE7FEE7FEE7FEE7FEE7FEE7FEE7FEE7D6
:1012F000074B1B5C1F2B8ABF064A4FF0A04203F02E
:101300001F03D2F80405D840C04300F00100704725
:101310006C6A050000030050074B1B5C1F2B86BF47
:1013200003F01F0305494FF0A041012202FA03F325
:10133000C1F80C35704700BF6C6A0500000300500F
:10134000074B1B5C1F2B86BF03F01F0305494FF0A3
:10135000A041012202FA03F3C1F80835704700BF2B
:101360006C6A05000003005030B44FF0A0430949F7
:1013700040254FF480744FF400704FF48052C3F84E
:101380000855C3F80845C1F80805C3F8082530BC5E
:10139000704700BF0003005030B44FF0A04309492C
:1013A00040254FF480744FF400704FF48052C3F81E
:1013B0000C55C3F80C45C1F80C05C3F80C2530BC1E
:1013C000704700BF000300500A4B195C1F298ABFF9
:1013D00009484FF0A04001F01F01D0F80435012268
:1013E0008A4022EA03011340C0F80815C0F80C3502
:1013F000704700BF6C6A050000030050263818BF14
:101400004FF0FF30704700BFC30706D4830742BFC9
:101410002E4B0C22C3F81827704770B44FF080434E
:10142000D3F84036DA0722D44FF0A04327490322ED
:1014300040264FF480754FF40074C3F81827C3F8A2
:101440002027C1F82427C3F83027C3F808654FF4D4
:101450008052C3F80855C1F808458107C3F808252C
:1014600003D51A4B0C22C3F8182770BC70474FF0F5
:101470001023D3F8043303F00703072BD4D1144B04
:101480000122C3F80425D3F80024002AFBD04FF032
:1014900010210020D1F804230D4C22F0070242F065
:1014A0000402C1F80423C3F80405D4F80034002B67
:1014B000FBD0BFF34F8F0749074BCA6802F4E062C5
:1014C0001343CB60BFF34F8F00BFFDE70003005015
:1014D00000E0014000ED00E00400FA05704700BFA5
:1014E00000B583B0044B0093044A402300F036F863
:1014F00003B05DF804FB00BF0115000020030020CD
:1015000002B32DE9F843114B114E8846144643F0BF
:10151000010903270025224608EB0501002009F0F8
:1015200061F803461D444FF47A40E41A23B9337836
:1015300033B1C847013F06D001233370002CEAD1F4
:10154000BDE8F88370473770BDE8F883706A05001E
:101550001C030020704700BF09F03EB9F0B595B0FC
:10156000002415460F4608461E4604F097FF3846ED
:1015700023460895082205A91A9D09960D950A94F7
:101580008DF82C400C9404F0E3FF9DF814308DF896
:101590001140DDE9061003F00302012ACDE9020142
:1015A00027D0022A04D0384604F07CFF15B0F0BDE5
:1015B000BDF81650C3F3C2038DF81030AD090826EC
:1015C000082D2C4628BF0824334622460EA938464B
:1015D00004F0BEFF2D1B214608AB02AA0EA826442C
:1015E00000F0A0FB002DEBD1384604F05BFF15B0F6
:1015F000F0BDBDF81460059DC6F38316C3F3C204A5
:10160000B2000EA9384608238DF81040C5F3952581
:1016100004F09EFF08AB324628460EA9009302ABA9
:1016200000F0DAFA384604F03DFF15B0F0BD00BF17
:1016300008B5FFF791FF0421034800F083FA034B3C
:1016400001225A7108BD00BF20E8050008000020F3
:10165000F0B5324C85B004F5836004F03DFA04F235
:10166000144004F039FAD4E9013703EA0702D01C28
:1016700004EB800114F8200010F0040044D003F1C2
:10168000020C0E7806F00306012E654635D0022EB8
:1016900002F1030621D004EB86010028F1D104EB0E
:1016A00082020133D26801923B4004EB830302F0D3
:1016B0000302012ADE6829D0022A23D1BDF80630B0
:1016C0009B090333360C05EB9305154804F010FA1B
:1016D00000B16560304605B0F0BD4B880CEB93134C
:1016E00007EA0302D11C03F1020C14F8210065463D
:1016F00004EB810100F00400CFE70B88C3F38313F0
:101700006344EDE70026E0E79D1CC8E7BDF8043020
:10171000C3F38313360C1D44D7E700BF3004002009
:10172000440800200B4B0C4810B50022FF21C3F8E1
:1017300018249960C3E90022C3F8142483F82024F4
:1017400004F068FE044610B9044804F035FF204652
:1017500010BD00BF3004002030E80500946A050089
:1017600021B9124B03EBC00000687047104A0F49C3
:10177000521AD20815D030B40E4D2B88834212D0A5
:10178000002303E035F82340844205D001339A4218
:10179000F8D1002030BC704701EBC300006830BCBA
:1017A0007047104670470846F8E700BFC0E70500DD
:1017B00020E8050000030020094B013903EBC000BD
:1017C00003290BD8DFE801F0020806040220704765
:1017D00040797047007970470420704700207047B7
:1017E000C0E705002DE9F843DFF8D8900746002050
:1017F0008846D9F8084003F097FED9E90132D9F8B4
:101800000060134401339B1B012B56D809F21C4581
:101810000121284604F03AF9FFF71AFF014628464D
:1018200004F034F9D9E90132D9F800101344013336
:101830005B1A012BECD90A40033205230231002048
:1018400049F82230C9F8001003F076FE00211C4848
:1018500004F012F980F31000731C234009EB83039A
:1018600000043440033440EA1740D86019F82430AB
:1018700067F3C50309F8243039F824306FF389136E
:1018800029F8243059F8242068F39F2213460121B7
:1018900061F301036FF3820349F8242009F824302F
:1018A00099F820341BB906E000F00EF818B1D9E918
:1018B00000329A42F8D1BDE8F8833146BBE700BF59
:1018C0004C080020300400202DE9F047914C002303
:1018D00084B0C4F81834BFF34F8FD4E9015605EA39
:1018E0000602D31C04EB830114F82330580719D5E2
:1018F00027680B7803F00303012B43D0022B03D19D
:101900004B88023505EB931506EA0502D4F8180456
:10191000D31C04EB830128B9AF4239D914F8233022
:101920005B07E6D404EB82026B1CD2680192334061
:1019300004EB830302F00302DB680293022A05F141
:10194000020700F08980012A26D0D4F810543DB156
:101950002B6828469B689847EB681D68002DF7D1D7
:101960006D486E4B6E49C01AC008000440F002007A
:10197000FFF738FFD4E90030C01A18BF012004B0C7
:10198000BDE8F0870B880235C3F383131D44BBE722
:10199000676004B0BDE8F087BDF804206148C2F379
:1019A0008313062B28BF062363F3891202339900A1
:1019B000ADF8042004F030FD80460028C5D004F0C6
:1019C0006DFD0023082201A9404604F08DFDBDF8FD
:1019D000043013F4707F00F09B806FF0010AAAEBD3
:1019E000050A082506EA070103312B46042204EB09
:1019F0008101404604F078FDBDF8043007F101098B
:101A00000AEB0902C3F3831393424F4605F1040521
:101A1000E8D8D4F81834002B64D1D4F8105465B148
:101A2000EB685A7928464146002A57D02B681B6834
:101A30009847EB681D68002DF2D1404604F032FD56
:101A4000002003F071FDD4F818340BB9C4F80490E9
:101A5000002003F071FD8DE7BDF8063031484FEAF4
:101A600093194D46502D28BF502565F38F1305F16E
:101A70000801ADF8063004F0CFFC804600283FF4A2
:101A800064AF26EA070A0AF1010A04F007FD4FEAEB
:101A90008A0A0023082201A9404604F025FD554585
:101AA0002BD9EBB2BAF1000F20D006EA0701A3EB65
:101AB0000A03033104EB8101DDB25246082340469C
:101AC00004F012FD2A460AF108031749404604F0C3
:101AD0000BFD09F1030907EB99099AE71D68002D31
:101AE0009ED1AAE7404604F0DDFC43E72A460823DE
:101AF0000D49404604F0F8FCEBE706EA0701033124
:101B000004EB81012A460823404604F0EDFCE0E79F
:101B1000B9467EE730040020D8E70500C0E705009D
:101B2000A06A050030E805003C040020044BD3E91E
:101B300000239A4201D0FFF7C7BE0020704700BFC4
:101B40003004002030B4184DD5F8104400215CB1A9
:101B5000E3681A798A4204D116E0DB681A798A426E
:101B600012D01B68002BF8D1C3681971D5F8103456
:101B700093B1DA68C36812681A60D5F81034DB686C
:101B8000186030BC0846704701310A29DFD14FF098
:101B9000FF31084630BC7047C5F81004C2681360B6
:101BA000084630BC704700BF3004002038B5094BF0
:101BB000D3F81044012583F820544CB1E3685D71DB
:101BC000236820465B689847E3681C68002CF5D1C1
:101BD00038BD00BF300400202DE9F04784B01D4619
:101BE0000C9C002394F80C802373EB8881460E46EE
:101BF0001746002B40D1297A05290ED06B7AA88888
:101C000073BB404B53F821A00021FFF7A9FD5246BA
:101C100003463D49204603F0D7FF062F09D8DFE8E9
:101C200007F0046A4249525D33004946204603F0FA
:101C3000CBFF2B7A052B05D06B7A5BB93349204655
:101C400003F0C2FF204603F0B3FF84F80C8004B019
:101C5000BDE8F0872E4A2F49204603F0B5FFEDE797
:101C6000FFF7AAFD2C4B2B4953F82020204603F008
:101C7000ABFF297AA888C4E7254A00922749284A59
:101C8000204603F0A1FFB6E7D6E90410D6E9002309
:101C90000390D6E902070291CDE9000749462046A4
:101CA00003F092FFC5E74946D6E90023204603F03A
:101CB0008BFFBEE7B168D6E9002320460091494674
:101CC00003F082FFB5E7D6E90201D6E900230191CE
:101CD00000904946204603F077FFAAE7D6E9037152
:101CE000B068D6E900230291CDE9000749462046B5
:101CF00003F06AFF9DE732684946204603F064FF1F
:101D000097E700BF286B05001C6B05002C960500AB
:101D1000106B0500186B0500B86A0500F86A05002D
:101D2000F06A0500082900D970472DE9F04F1D46DB
:101D3000904600232A7B2B7385B0B8F806300392B7
:101D400007460E46002B7BD198F80810052911D0C4
:101D500098F80930B8F80400002B63D13C4B53F8D5
:101D600021400021FFF7FCFC224603463949284662
:101D700003F02AFFDFF8FCB0DFF8FC90002405E058
:101D80003A5D013403F020FF082C09D0A6424946F1
:101D90002846F5D85946013403F016FF082CF5D132
:101DA0002D49DFF8D8B0DFF8D890284603F00CFFB3
:101DB00000240CE017F804A0BAF17E0F23D92E22DC
:101DC00049462846013403F0FFFE082C08D0A642FD
:101DD000F0D859462846013403F0F6FE082CF6D117
:101DE00098F80830052B02D098F80930A3B91B49A0
:101DF000284603F0E9FE284603F0DAFE039B2B7326
:101E000005B0BDE8F08F53F01DF9504452464378B9
:101E100013F0970FD3D0D3E7114A1249284603F0A5
:101E2000D3FEE4E7FFF7C8FC0F4B0E4953F8202020
:101E3000284603F0C9FE98F80810B8F804008DE7AA
:101E4000074A009209490A4A284603F0BDFE7BE78B
:101E5000286B05001C6B0500E86A05002C96050040
:101E6000106B0500186B0500B86A0500F86A0500DC
:101E7000F06A0500E46A0500DC6A0500246B0500D1
:101E8000EC6A050070B51A4B1D789DB1194B1C68A2
:101E90002378C0B2984210D004F10802002306E073
:101EA00014F833108142164602F1080206D00133BD
:101EB0009D42F5D100231B78FFDE264604F01AFF71
:101EC0007378A3F10103B3FA83F35B09834200D073
:101ED00070BD094BD3E900231343F9D1074B0848E0
:101EE000196800224908BDE8704000F0E5BB00BF5A
:101EF000EC0800204009002018090020F00800200C
:101F0000F80800202DE9F04F974E337885B0002B6C
:101F100000F02581954F964DDFF8608200244FF048
:101F20000109D7F800B01BF8340004F0E3FE0BEB16
:101F3000C4031BF834B05B784FEA5B0C1BF0010E56
:101F400015F80C10A3F10103B3FA83F314BF0A09C7
:101F500001F00F025B09042A00F2BB80DFE802F007
:101F60008ABB5B400300834200F0D680BEF1000FC5
:101F70000CBFF0230F233078194005F80C10A8B1DE
:101F8000D7F800C09CF800305B4500F0DE800CF113
:101F90000802002304E01CF83310594500F0D680F5
:101FA00001338342964602F10802F4D100200390E7
:101FB00003F0BAFAABF12002CBF1200329FA03F3C4
:101FC00009FA02F21A4309FA0BF103920291D8E9D5
:101FD0000023DDE9020122EA000023EA010171E0A9
:101FE000834232780CD0BEF1000F0CBFF0230F23D8
:101FF00003EA01030CBF04214021194305F80C102A
:10200000013494428DDBD8E90023134340F09380E0
:1020100005B0BDE8F08F83426FD1BEF1000F14BF51
:102020000F23F02303EA0103327814BF3021032188
:10203000194305F80C10002AE5D0D7F800C09CF829
:1020400000305B4500F08E800CF108010023013365
:1020500093428E4601F10801D2D01CF83300584556
:10206000F5D1DEF80430002BCAD05846012198473C
:102070003278C5E783422CD1BEF1000F0CBFF023AC
:102080000F2303EA01030CBF012110211943002093
:10209000019005F80C1003F047FAABF1200309FAA0
:1020A00003F301930198CBF1200129FA01F10843D0
:1020B00009FA0BF101900091D8E90023DDE9000154
:1020C0001043194302460B460020C8E9002303F0E1
:1020D00033FA327894E7834213BF0023202302228D
:1020E0001A46BEF1000F12BF0F20F0201346014028
:1020F0000B4305F80C30327882E7BEF1000F0CBFBD
:10210000F0230F2303EA01030CBF0121102119431F
:1021100005F80C10327873E7BEF1000F14BF0F23DF
:10212000F02303EA010314BF30210321194305F80A
:102130000C10327864E70F4B0F48196800224908E9
:1021400005B0BDE8F04F00F0B7BAE646DEF804305F
:10215000002B3FF42BAF00215846984726E7DFF8C5
:102160001C8050E7E6467CE7EC0800204009002090
:1021700020090020F0080020F8080020180900209D
:10218000092A40D9F0B583B00E460546144604F03E
:102190003BFC002831D0204A2049214B15600E70AD
:1021A000202200211F481C6052F0A7FF1E4B002078
:1021B0000021741EC3E90001E4B236B305EBC40488
:1021C0001A4E083D032701E0A5421ED09DF80630B7
:1021D00020788DF8047003F0FC036FF382038DF810
:1021E0000630A3788DF80530324601A904F016FCBC
:1021F000083C0028E8D003B0F0BD04F0BBFB002889
:10220000C9D003B0F0BD07207047094A0948002132
:1022100000F044FA03B0F0BD40090020EC080020B3
:10222000F00800202009002018090020851E000069
:10223000051F0000946B050070B5084D2B785BB14D
:10224000074E00243368012113F8340004F0D6FC53
:102250002B780134A342F5D8002070BDEC08002093
:102260004009002000B585B000230390194601AA5B
:1022700044F20100CDE9013300F004F805B05DF847
:1022800004FB00BF10B572B6FFF790FCFFF74EFCE1
:102290000028FBD1104B114C1149E41AE408240426
:1022A00044F00100FFF79EFA0E4B1B68DB0700D5D8
:1022B00000BE44F002000C49FFF794FABFF34F8FC1
:1022C0000A490B4BCA6802F4E0621343CB60BFF3C8
:1022D0004F8F00BFFDE700BFC0E70500D8E705004E
:1022E000A46B0500F0ED00E0B06B050000ED00E030
:1022F0000400FA05D0E90223D1E90201994208BF9E
:1023000090422CBF01200020704700BF2DE9F04F04
:1023100087B0039003F026FA40B19B49D1E900232E
:1023200012F1807443F10005C1E9004500210398D2
:10233000964C03F033FA60B1236853B1944B25688F
:102340001B7823B11DB12B7F002B40F02D81002382
:1023500023600121039803F021FA002840F0F38064
:1023600005A98C4803F04AFB18B38B4E884F894D62
:102370000378012B00F0C680C0F0CC80022B0ED178
:1023800030464FF0000804F039F930B180F81C8075
:10239000304604F033F90028F8D101233B7005A939
:1023A000284603F059FB05A9284603F027FB00281F
:1023B000DED1794E794FDFF8D09103E00D2855D06A
:1023C00000232360304604F01FF92368002800F042
:1023D000B48063B12368D0E90201D3E902239942B2
:1023E00008BF90423BD223681B7F002B7FD1304631
:1023F00004F004F90546D5E902233846CDE9002367
:1024000003F0DEF9D9E90023DFF8948112EB000A2A
:1024100043F1000BD8E900239B4508BF924503D246
:102420001AF1807A4BF1000BDDE90001B0EB0A00F4
:1024300061EB0B01012871F1000313DBDFF864A1EC
:10244000504559D8AA684FF496030021384603F046
:1024500003F90028B2D12368002B67D0256007B0AC
:10246000BDE8F08F0021384603F08CF9484B1B780B
:10247000002BA5D02B7F002BA2D0384603F0A0F96B
:10248000D8E90023D9E900ABCDE900231AEB00021B
:102490004BF1000310461946DDE90023994208BFBD
:1024A000904203D210F1807041F10001D5E902237E
:1024B000994208BF904261D32B6903B92B77D5E9C4
:1024C00005309847296900293FF47AAF2B7F002B0C
:1024D0003FF476AFD5E9022312EB010A43F1000B7A
:1024E000C5E902AB2946304604F074F868E7216874
:1024F000304604F06FF87AE7384603F061F900EBF4
:102500000A02A0E741682368994213D0304604F0DC
:102510007FF844E743681A7F002A7FF440AF012226
:102520001A774168304604F055F838E7039803F00D
:1025300065F893E70023236031E7002B8FD10398E0
:1025400003F060F88BE71548DFF8548003F038F9A2
:102550000D4BD3E90067D8E9002316EB000947F1DA
:10256000000A9A4508BF91454846514603D219F1E1
:1025700080704AF10001C8E90001F1E629463046C1
:1025800004F028F81CE700BF48090020C809002013
:1025900050090020AC090020C46B05001000002089
:1025A000C0090020FFFFB4001D4803F009F91D4ACF
:1025B0001D4BD2E90067D3E9002316EB000847F171
:1025C0000009994508BF90454046494603D218F195
:1025D000807049F10001D5E90223994208BF904279
:1025E00019D32B6903B92B77D5E9053098472969A9
:1025F00000293FF4ACAE2B7F002B3FF4A8AED5E909
:102600000223561843F10007C5E902672946074827
:1026100003F0E0FF9BE62946044803F0DBFF96E663
:102620001000002048090020C0090020C46B0500EC
:1026300010B5134B13491B68134882B058220193FD
:10264000082303F087F9044610B1204602B010BDFC
:102650000E4A0F4801A902F079FF04460028F4D180
:1026600001210B4803F074F801231946094A084870
:1026700002F0CCFF084B012220461A7002B010BDB8
:10268000C06B050054090020AC0900200D23000098
:1026900010000020FFFF7F00500900204AB1A1F187
:1026A00001010368B1FA81F14909C3E9041200206C
:1026B00070470720704700BF037F0BB100207047B1
:1026C0002DE9F048826182B004461F480D4603F0B0
:1026D00077F81E4B1E49D3E90023D1E9006712EBBE
:1026E000000B43F1000CBC4508BFB34503D21BF1FE
:1026F000807B4CF1000C1BEB050221694CF10003BF
:10270000C4E9022379B901A9124803F03BF988B161
:1027100000254460057001A90E4803F05FF968B90F
:1027200002B0BDE8F088256101A90A4803F02AF942
:102730000028EDD1042002B0BDE8F088024803F083
:1027400043F82846ECE700BF1000002048090020AD
:10275000C0090020AC09002030B5002583B0044634
:10276000057701A90B4803F00DF978B10123446006
:10277000037001A9074803F031F908B903B030BD6F
:10278000054803F021F8284603B030BD042003B00B
:1027900030BD00BFAC0900201000002030B583B070
:1027A00001A9124803F0EEF8F0B1114D0446286873
:1027B0002060002002F0B8FE0E4B0F481B88026814
:1027C00001339B1AE380002103F056F9A08000201A
:1027D00002F0B2FE01A9054803F000F9074B1B689F
:1027E00013B101462846984703B030BD780B00204E
:1027F000F86B05006C0A0020980B0020D00900201F
:1028000030B50378052B83B0054626D0002B31D197
:102810002C4B1C683CB1236868889B6898472368E8
:102820005C68002CF7D1284C002002F07DFE236864
:102830007BB10121244803F029F9002002F07CFE3D
:10284000224B1B6813B1284601219847236803B027
:1028500030BD1F4B6A881A80EBE71E4BD3F88424E7
:10286000D3F8803413F0FF0F04D11B4BD2B2052AEA
:1028700008BF1D4601A9194803F084F80446002842
:10288000E5D02B680360002002F04EFE104B0E488E
:102890001B88026801339B1AE380002103F0ECF8E7
:1028A000A080002002F048FE01A90C4803F096F831
:1028B000064B1B68002BCAD001462846984703B038
:1028C00030BD00BF900B0020980B0020D0090020E5
:1028D0006C0A002000700240F46B0500780B0020A9
:1028E00030B5012883B030D009D302282BD101A9FB
:1028F0001A4803F047F8044628B3194D06E001A929
:10290000164803F03FF80446E8B1164D28682060E9
:10291000002002F009FE144B14481B8802680133A2
:102920009B1AE380002103F0A7F8A080002002F0AA
:1029300003FE01A9094803F051F80D4B1B6813B1C0
:1029400001462846984703B030BD01A9034803F06B
:1029500019F804460028F6D0064DD7E7780B00207A
:10296000F06B0500E86B05006C0A0020980B002056
:10297000D0090020EC6B05002DE9F04F87B006AFC1
:1029800000260446894692469B4647F8106D00E0B3
:102990000136626801235568214600223846A8475F
:1029A0000028F5D18DF80600049066B380460546F0
:1029B0000AE09DF806306768023B7F68B8479DF8DB
:1029C00006301D44AE421ED9626801235768214675
:1029D0000DF1060204A8B847626801235768214632
:1029E0000DF1070204A8B8479DF807304B454FF09A
:1029F0000002214604A8DCD1C24508D008F1010834
:102A00005FFA88F8D5E7052007B0BDE8F08F109A87
:102A10009DF8063013608BF800308BF801906168E8
:102A2000023B4D680BF102022146A8470020EBE76C
:102A30002DE9F041082382B005464FF484723949EC
:102A4000394802F087FF40B9384805F0F3FC0446E6
:102A500040B1204602B0BDE8F0810324204602B018
:102A6000BDE8F081324A3349334B14700C60482280
:102A7000214632481C6052F040FB21464822304833
:102A800052F03BFB002D45D095E807002D4B83E825
:102A90000700002003F098FE08B185283FD12A4D99
:102AA000274F2B7A6E68DFF894C005F109044FF0C8
:102AB000030E1EFB034E74451FD0F4B16378CBB1F7
:102AC000A278A21816D003F1FF38114652FA88F8FE
:102AD000013A01E001310DD012F8010F00F00F03AF
:102AE000DB0000064CBF6344DB1990451D60306875
:102AF0005860EFD103347445DFD102A90B2301F8EC
:102B0000043D11483368984704460028A1D005F0D9
:102B100025FD9EE70B4BC3E900551D72B9E7FFF792
:102B2000A1FBBCE7700A0020780B00200128000000
:102B30009C0B0020880B00208C0B0020DC0900205F
:102B4000240A0020D0090020386C050008B503F0E5
:102B50005DFE05F003FD18490B6833B100201A68CB
:102B6000086013681146002BF9D1144B1A683AB16A
:102B7000002112681960134653F8042F002AF8D177
:102B80000F4B1A683AB1002112681960134653F8C6
:102B9000042F002AF8D1482200210A4852F0ADFA49
:102BA00048220021084852F0A8FA0C2200210748C8
:102BB00052F0A3FA002008BD880B00208C0B0020E7
:102BC000900B0020DC090020240A0020D0090020FE
:102BD00010B505F0DFFD40B105F0E4FD044620B975
:102BE000054803F005FE10B910BD082010BDFFF721
:102BF00039FB204610BD00BFE46B050005F0B8BCF2
:102C000006F0B8BD4FF0804303E0D3F83824D10775
:102C10002BD5D3F838249207F7D530B583B001A966
:102C2000124802F0AFFE0446E8B1114D286820605A
:102C3000002002F079FC0F4B0F481B88026801331B
:102C40009B1AE380002102F017FFA080002002F011
:102C500073FC01A9054802F0C1FE084B1B6813B1C3
:102C600001462846984703B030BD7047780B0020D6
:102C7000FC6B05006C0A0020980B0020D009002096
:102C800010B582B0822301A912488DF8003002F0FD
:102C900079FEE8B1044600982060002002F044FC70
:102CA0000D4B0E481B88026801339B1AE3800021FC
:102CB00002F0E2FEA080002002F03EFC01A90548DF
:102CC00002F08CFE064B1B6813B10146684698471C
:102CD00002B010BD780B00206C0A0020980B002079
:102CE000D00900202DE9F04F037881B08246852B72
:102CF00000F2B980DFE813F03A028B01BA00ED016F
:102D00005602D800E000B700FB000E012101B70019
:102D1000B700B700B7003401B700B700B700B7007D
:102D2000B700B700B700B700B700B700B700B700EB
:102D3000B700B700B700B700B700B700B700B700DB
:102D4000B700B700B700B700B700B700B700B700CB
:102D5000B700B700B700B700B700B700B700B700BB
:102D6000B700B700B700B700B700B700B700B700AB
:102D7000B700B700B700B700B700B700B700B7009B
:102D8000B700B700B700B700B700B700B700B7008B
:102D9000B700B700B700B700B700B700B700B7007B
:102DA000B700B700B700B700B700B700B700B7006B
:102DB000B700B700B700B700B700B700B700B7005B
:102DC000B700B700B700B700B700B700B700B7004B
:102DD000B700B700B700B700B700B700B700B7003B
:102DE000B700B700B700B700B700B700B700B7002B
:102DF000B700B700B700B7004801860057011C02B2
:102E0000D001D8009C4BDFF888929C49D3E900029E
:102E10009047D9F80040002C40F09A82DFF86CA26D
:102E2000DAF80430002B40F0A28201F0E9FF944B65
:102E30001B68002B00F00B830120924D05F074FC01
:102E40002A78931EDBB2062B0BD88F49CB5C13B1CB
:102E500003F0A6FC2A78022A00F0F382082A00F088
:102E6000F08201232B7001B0BDE8F08F854D2A78E8
:102E7000931EDBB2062B0BD88349CB5C13B103F056
:102E80008FFC2A78022A01D0082A01D105F0DCFC47
:102E90007E4B5B6803222A700BB1022098477C4B63
:102EA0001C68002C40F0AE81734BD3E90002514600
:102EB00001B0BDE8F04F1047827802F00F03120610
:102EC0004CBF744A6C4ADB001344D3E900025146FC
:102ED00090470028C7D09AF8020000F00F03013B8A
:102EE000062BC0D801B0BDE8F04F05F0CBBD674B55
:102EF0005B680BB108209847654B1C68002CB2D06A
:102F0000636820461B685146984723681C68002C5C
:102F1000F6D1A8E75D4B5B680BB1092098475C4B85
:102F20001C68002C9FD0636820461B685146984758
:102F300023681C68002CF6D195E7544B5B680BB1F5
:102F40000A209847524B1C68002C8CD0636820469E
:102F50001B685146984723681C68002CF6D182E70D
:102F60004A4B5B680BB10F209847494B1C68002CFB
:102F70003FF479AF636820461B6851469847236841
:102F80001C68002CF6D16EE73E4D2B78062B00F026
:102F90002B82072B02D0052B7FF465AF05F05EFC7A
:102FA00002232B705FE7DFF8E890D9F80070002F5C
:102FB00000F0408197F808A0BAF1000F00F03581C9
:102FC0004FF00008444607F109057B68DB6813B140
:102FD0002146384698473B7AA34240F2A3816E7857
:102FE000002E00F019810024234632460AE0AB7817
:102FF0002A190134D05C06F057F9E3B29E4240F240
:103000000B816A789A42F2D800231B78FFDEDFF842
:103010008090D9F80070002F00F0578197F808B021
:10302000BBF1000F00F04C814FF00008444607F15F
:1030300009057B68DB6813B12146384698473B7A1F
:10304000A34240F26F816E78002E00F030810024A0
:10305000234632460AE0AB782A190134D05C06F0E8
:1030600023F9E3B29E4240F222816A789A42F2D872
:1030700000231B78FFDE00BF240A0020006C05003F
:103080008C0B00209C0B0020DC6B0500D00900207D
:10309000880B0020DC090020A44D2B78032B00F0C6
:1030A000A88105F097FB00283FF4DDAE2B789A1E2F
:1030B000D2B2062A40F2DD819D4803F043FB2B7813
:1030C000022B00F0CD81082B00F0CA8106232B7063
:1030D000C9E6964D2B78082B00F07E819A1ED2B25D
:1030E000062A40F2B781924803F02CFB2B78022B82
:1030F00000F0AA81082B00F0A78105232B708D4BCF
:103100005B680BB1032098478B4B5146D3E9000213
:1031100090478A4B1C68002C3FF4A5AE636820469C
:103120001B685146984723681C68002CF6D19AE624
:103130007E4D2B78032B7FF496AE06F03FFA0028E5
:103140003FF491AE2B789A1ED2B2062A0BD87C4956
:103150008A5C12B103F024FB2B78022B00F09281E1
:10316000082B00F08F8104232B707CE66F4B1B78BB
:10317000032B00F05581082B00F052816D4B5B68EA
:103180000BB1002098476F4B1C68002C3FF46BAECE
:10319000636820461B685146984723685C68002C8A
:1031A000F6D160E6634B5B680BB103209847624B36
:1031B0006549D3E900029047604B1C684CB1624DF1
:1031C000636820461B682946984723681C68002CC2
:1031D000F6D1564D2B78062B00F00381082B0ED02C
:1031E0009A1ED2B2062A40F23E81514803F0AAFA52
:1031F0002B78022B03D0082B01D005F02FFB0223E4
:103200002B7030E6636820461B6851469847236858
:103210001C68002CF6D147E608F101085FFA88F433
:10322000A24505F103053FF6D0AE3B681F68002FAD
:103230007FF4C0AE3D4D06F0F1F82A78931EDBB264
:10324000062B0BD83E49CB5C13B103F0A9FA2A78C0
:10325000022A01D0082A01D105F0F6FAD9F8004077
:1032600000232B704CB1394E636820461B683146F1
:10327000984723681C68002CF6D12F4B3349D3E9BB
:10328000000290472B4B5B680BB10E2098472B78C0
:10329000023BDBB2062B3FF6E6AD294AD35C002B9E
:1032A0003FF4E1AD01B0BDE8F04F03F079BA08F1A9
:1032B00001085FFA88F45C4505F10305FFF4B9AE37
:1032C0003B681F68002F7FF4A9AE184D01F08EFDFA
:1032D0002A78931EDBB2062B79D81949CB5C002BD8
:1032E00075D0022A03D0082A01D005F0B7FA114B95
:1032F0005B6802222A700BB1012098470E4B5146A1
:10330000D3E900029047D9F80040002C3FF4ABAD60
:10331000636820461B685146984723681C68002C48
:10332000F6D1A0E500235B78FFDE00BF9C0B0020F8
:1033300018000020D0090020240A0020880B00205B
:10334000DC6B05008C0B00200C6C0500046C050088
:103350004E4D636820461B682946984723681C68C1
:10336000002CF6D1DFF834A1DAF804300BB10D20CF
:103370009847D9F80070002F3FF457AD97F80890A0
:10338000B9F1000F58D04FF00008444607F1090585
:103390007B68DB6813B12146384698473B7AA342E5
:1033A000C0D96E78002E3FD000242346324609E073
:1033B000AB782A190134D05C05F076FFE3B29E4267
:1033C00032D96A789A42F3D800231B78FFDE30485E
:1033D00003F0B8F92A7884E702232B7005F048FA45
:1033E0008DE607232B703EE505F038FA08232B7095
:1033F00039E506F0E3F800283FF453AE2B789A1E27
:10340000D2B2062A09D823498A5C12B103F0C8F95E
:103410002B78022B33D0082B31D004232B7040E6BD
:103420001D48FFF75FFCA9E608F101085FFA88F480
:10343000A14505F10305ABD83B681F68002F9DD15E
:10344000F3E405F001FA0CE505F0FEF955E69AF80B
:103450000800F2E40F498A5C002A7FF448AE42E695
:1034600005F0F2F932E60B498A5C002A7FF4C1AE1E
:10347000BBE608498A5C002A7FF422AE1CE605F010
:10348000E3F9CAE705F0E0F96DE600BF006C05005E
:1034900018000020DC6B0500086C0500D009002036
:1034A00070B5284E82B03468002301930CB3A58810
:1034B000A5B1E388B3F5006F3ABF5A1C92B201225E
:1034C00005F1FF3528BF002301A8A580E280ADF8F3
:1034D0000630FFF707FC012002B070BD2046FFF761
:1034E00001FC1949194802F0B7FA0120356002B011
:1034F00070BD1549154802F081FA04463060002875
:10350000D5D1134B1B6813B9184602B070BD114DCD
:1035100002F00AF82B880E48B3F5006F39BF5A1C29
:1035200092B22346012201212A80ADF8063002F032
:10353000C5FA002002F000F801A8FFF7D3FB012034
:1035400002B070BDA00B0020CC090020780B002039
:10355000980B00206C0A00202DE9F041067A374FC5
:10356000DFF8E0C000F109044FF0030E1EFB064E29
:1035700021468E4582B01AD0D1B14D78002211E09B
:103580008B781344D9420FD011F8038008F00F0351
:10359000DB0018F0800F14BF6344DB1901321B6895
:1035A000002B46D19542EBD103318E45E4D1002169
:1035B000CDB2B542214FDFF88CC028D205EB4505CE
:1035C000651924D06B78F3B1AB78EB1818BF4FF0C6
:1035D000010E05D117E0AB787344EB1812D0964674
:1035E0001B7803F00F02D2001B064CBF6244D219B5
:1035F000106043681E6856606E780EF101037645D0
:10360000DAB2E8D8067A0131CDB2B542D6D30C4A47
:1036100013681BB11A681368002BFBD102A9106054
:103620000B2201F8042D43681B68984702B0BDE8DF
:10363000F081112002B0BDE8F08100BF240A002013
:10364000880B0020DC0900202DE9F041444F454E55
:103650003C68454D82B04FF00C08002C7BD002A98D
:10366000636801F8048D20461B689847002873D1D1
:1036700023681B683B602368186033689C42B3680A
:1036800008BFC6E900009C4204BF0023C6E902331C
:1036900033699C4204BF0023C6E90433B3699C42EA
:1036A00004BF0023C6E90633336A9C4204BF0023EB
:1036B000C6E90833B36A9C4204BF0023C6E90A3353
:1036C000336B9C4204BF0023C6E90C33B36B9C42AE
:1036D00004BF0023C6E90E33336C9C4204BF0023B1
:1036E000C6E910332B689C4204BF0023C5E90033B0
:1036F000AB689C4204BF0023C5E902332B699C429E
:1037000004BF0023C5E90433AB699C4204BF002316
:10371000C5E906332B6A9C4204BF0023C5E9083380
:10372000AB6A9C4204BF0023C5E90A332B6B9C4261
:1037300004BF0023C5E90C33AB6B9C4204BF0023DC
:10374000C5E90E332B6C9C423C6804BF0023C5E9DD
:103750001033002C83D1204602B0BDE8F08100BFB9
:10376000880B0020DC090020240A0020024B187876
:10377000003018BF01207047940B002000F00F03A9
:10378000072B10B5044604D805F006FA204605F0CC
:1037900085F92046BDE8104005F0A8BC05F084BDC1
:1037A000014B1868704700BF880B002070B4114BA4
:1037B0001E68A6B1357A75B1737A834206F10902A3
:1037C00010D0002303E012F8034F84420BD00133E2
:1037D000DBB29D42F7D133681E68002EEAD1304635
:1037E00070BC704700230029F9D030460B7070BCC4
:1037F000704700BF880B0020436811461B681847BC
:1038000000F00F03082B0AD802064CBF054A064AEF
:10381000DB001344186810B143681B681847102078
:10382000704700BFDC090020240A002038B5094B8E
:103830001C6864B1054602E023681C683CB16368FB
:1038400029461B68204698470628F5D038BD062033
:1038500038BD00BF880B002038B50D46044605F082
:103860001DF818B1054B1B78022B01D0082038BD7C
:1038700029462046BDE8384005F020B89C0B0020C2
:1038800038B50D46044605F009F818B1054B1B780C
:10389000022B01D0082038BD29462046BDE838401B
:1038A00005F098B89C0B0020F8B543689B68054666
:1038B0000C4616461BB19847062800D0F8BD86BBBB
:1038C0002B7AA3421DD9093504EB44042C446778B4
:1038D0002FB3354633463A460EE0A3786219D65CDC
:1038E00006F00F03072B30460DD9013505F0FEFB1E
:1038F000EBB29F4213D962789342EED300231B7838
:10390000FFDE7378FFDE05F047F9304605F0C6F8B4
:103910000135304605F0EAFBEBB2BB42EBD30020A9
:10392000F8BD0720F8BD00BF43681B6903B1184705
:10393000184670472DE9F047304BD3F80090B9F1A5
:10394000000F59D099F808A0BAF1000F4DD04FF0F0
:103950000008444609F1090507E008F101085FFA8B
:1039600088F4A24505F103053FD9D9F804309B68D6
:103970002BB100222146484698470628EDD199F8F8
:103980000830A34202D800235B78FFDE6F78002F57
:10399000E3D0002423463A460EE0AB782A19D65CE1
:1039A00006F00F03072B30460BD9013405F09EFBC0
:1039B000E3B29F42D1D96A789342EED300231B78B9
:1039C000FFDE05F0E9F8304605F068F801343046CE
:1039D00005F08CFBE3B29F42EDD808F101085FFAD5
:1039E00088F4A24505F10305BFD8D9F80030D3F813
:1039F0000090B9F1000FA5D1BDE8F087880B002039
:103A00002DE9F8431E4B1F68002F33D097F808901C
:103A1000B9F1000F2AD04FF00008444607F109051C
:103A20007B68DB6813B12146384698473B7AA3424E
:103A300022D96E7896B100242346324609E0AB784D
:103A40002A190134D05C05F02FFCE3B29E4205D95F
:103A50006A789342F3D300231B78FFDE08F1010854
:103A60005FFA88F4A14505F10305D9D83B681F68C2
:103A7000002FCBD1BDE8F88300235B78FFDE00BFC9
:103A8000880B00204360CA699A4205D201F12802DE
:103A900002608B67002070478A6902600B67CB6108
:103AA000002070472DE9F0410468D24E0D7A357040
:103AB00040F24637BC4200F08A8331D9B4F5567FD4
:103AC00000F0878400F2CB8040F24E35AC4200F02B
:103AD000698440F2458140F25335AC4200F02684BF
:103AE000B4F5557F80F06F8240F25135AC4200F062
:103AF000558340F25235AC4240F0E4820124002567
:103B0000002A00F02F8507795755A3424FF0020590
:103B1000057100F2898540F2533303600120C7E14B
:103B2000B4F54A7F00F021844AD8B4F5467F00F00E
:103B3000458340F2698140F21B37BC4200F0188493
:103B4000B4F5477F80F0FD8140F21937BC4200F0A8
:103B5000D38340F21A37BC4240F0B482002A00F00E
:103B60001D8690F804E001244FF0000C0027A342CA
:103B700002F80CE0077140F23C8402EB040C0134C3
:103B80008CF80070DFF878C200278CF80070AF4224
:103B900080F0AD830925A342057140F23D85671C85
:103BA000002A00F06A8505791555BB424FF00404E0
:103BB000047100F2BC8540F223330360012077E1F9
:103BC00040F23535AC4200F0C0837DD940F23E353D
:103BD000AC4200F0D28340F29682B4F5517F00F0FF
:103BE000698200F24B8340F24335AC4240F06A8276
:103BF00001250024002A00F07984077917559D4299
:103C00004FF02404047180F05684274605F1010E1C
:103C1000002473455755047140F2438425460EF144
:103C2000010C1024634502F80E50047140F2208408
:103C300025460CF101070124BB4202F80C50047127
:103C400040F20784254607EB040C05246345D5554F
:103C5000047140F2F98325460CF101079AE0B4F5AE
:103C60005D7F00F0A78340F2018140F28535AC42D0
:103C700000F0208340F2588240F28B35AC4200F0D5
:103C80001182B4F5647F00F00D8240F28635AC42BB
:103C900040F01882002A40F093850124564D0F7D94
:103CA0002D682D78AF4200F0F3838F7DAF4200F096
:103CB000A084DFF850C1514F9CF800503F78013587
:103CC000EDB28CF800503EE040F22E35AC4200F0F0
:103CD0008D8200F2998140F22935AC4200F0548285
:103CE00040F22A35AC4240F0ED81434C2768002A6F
:103CF00000F072850479964601258EF800403C78E4
:103D00000F7DA74200F0E4838F7DA74200F0BD84C1
:103D10000024AB42047140F2F1816C1C0AB10779B6
:103D20005755354D91F814C02D682F78BC4500F0DB
:103D30001A82DFF8C8E0DFF8CCC06F788EF8007028
:103D400000258CF80050BD42C0F0C081DFF8B0C043
:103D500035789CF800700137FFB28CF8007016E7D8
:103D600040F24B35AC4200F04E83B4F5537F80F007
:103D70005B8140F24735AC4200F0028340F24A35A5
:103D8000AC4240F09F81002A00F0008505790127B0
:103D90004FF0000C2424BB4202F80C50047140F296
:103DA000498307F1010E01257345D455057140F291
:103DB00032830EEB050C0324634502F80E500471A8
:103DC00040F22E830CF1010702F80C40BB4291F83F
:103DD00016C080F804C040F2DB827D1C0424AB4294
:103DE00002F807C0047100F2248440F251330360EA
:103DF00001205DE0A60B0020A80B0020A40B0020F2
:103E0000A50B0020A70B002040F21537BC4200F0A4
:103E1000068200F21781002C00F07782B4F5457F0E
:103E200040F05081002A00F0378404791470012B8F
:103E30004FF00B04047140F20B844FF0030C022787
:103E40004FF0010E02F80E40BB4291F814E080F8EA
:103E500004E040F208830224634502F807E004719D
:103E600040F2FC8227460CF10108FCE040F25B3591
:103E7000AC4200F00C82B4F5577F1BD240F25935AA
:103E8000AC4200F0D98140F25A35AC4240F01A8180
:103E900001240025002A00F0898307795755A342A1
:103EA0008D7D057100F2BD8340F25B33036001201C
:103EB000BDE8F08140F26F35AC4200F01582B4F5F8
:103EC0005C7F40F0FF80002A00F08D8405799446E5
:103ED00001248CF80050C24FC24D3F682D7897F8EE
:103EE00001C0AC4540F2078197F802C03D44A342AF
:103EF00015F80C50057140F24281651C1AB190F81A
:103F000004C002F804C03C780F7DA74200F0D882BC
:103F10008F7DA74200F0A7834024AB42047140F29A
:103F200018816C1C002A00F0AD8207795755A34216
:103F30004FF00005057140F21181171901343D70F1
:103F4000ACE640F22237BC4200F0738140F22337E6
:103F5000BC4240F0B780002A00F03B84047915464B
:103F600001272C700D7AA04C2478AC4280F0EC80B4
:103F700004EB440501F10904DFF864C214F805E01C
:103F800080F804E02C44BB42CCF8004040F28E8222
:103F90007C1C002A00F019830579D555A3424FF007
:103FA0000005057140F269828D4F3F6804F1010CF4
:103FB000155563457C78047100F24F8340F22A3333
:103FC0000360012074E700F07D8140F25735AC4278
:103FD00078D1002A00F0058407799446012524242D
:103FE000AB428CF80070047140F2678127466C1C6C
:103FF0005755A3424FF00605057100F2248340F2A5
:1040000059330360012053E740F22F35AC4200F0F2
:104010008681B4F54C7F55D1002A00F0D78317462E
:1040200004793C70012573E600F0DA8140F24D35E9
:10403000AC4247D1002A00F09E83047901274FF05B
:10404000000CC1E640F21637BC4200F02A8140F273
:104050001737BC4236D1002A00F0A28307794FF00F
:1040600001084FF0000C0224434502F80C70047163
:1040700040F2E581274608F1010E0224734502F85B
:104080000870047140F2D1810EF1010C02F80E406B
:10409000634591F819E080F804E040F2AF810CF13B
:1040A000010463E501240025002A3FF402AE0779EC
:1040B0005755FEE5002A00F05C8307794FF0010EAA
:1040C0000025A5E5002303601846F1E60725A34275
:1040D00005714FD9671C002A00F00182057915553A
:1040E000BB424FF00505057100F292824FF45C73FC
:1040F00003600120DCE600231B78FFDE40F23E3344
:1041000003600120D4E640F23635AC4200F0A380D3
:1041100040F23735AC42D5D1002A00F0578314461F
:10412000077927700125F3E540F27935AC4203D0D9
:1041300040F27E35AC42C5D101250024002A3FF46F
:10414000EBAE07791755E7E6254A002313601B7885
:10415000FFDE40F2853303600120A9E640F286339A
:1041600003600120A4E605259C42057180F04B8286
:10417000651C3FE540F26F330360012098E64FF481
:104180005D730360012093E6154C2768002A00F058
:10419000EE8205794FF0010C002409E7002A00F0B7
:1041A00027830779944601252424AB428CF80070BC
:1041B000047140F2048127466C1CA5E4002A00F03B
:1041C000D48207794FF0010E4FF0000855E7002A1E
:1041D00000F0E882057901274FF0000C2BE500BFC5
:1041E000A80B0020A70B0020A50B00200124002510
:1041F000002A00F0838207795755A3424FF0020747
:10420000077140F2DD81651C1755AB424C7E04718D
:1042100000F26F824FF44C730360012048E6002ADD
:1042200000F0B18204794FF0020C01274FF0000E2C
:1042300008E601270024B3E4002A00F0D7820779BA
:10424000944601258CF800700F7D0771AB4240F257
:10425000A4806C1C22E6002A00F0938290F804C02F
:10426000012500240027AB4202F804C0077100F2C8
:10427000538240F237330360012019E6002A00F030
:104280008B8205794FF0010C4FF0000EC9E4002A33
:1042900000F0A5820579174601243D70C74D2D68B1
:1042A00047E5002A00F0698290F804E04FF0010C25
:1042B0000027D0E50124002534E64FF4567303604F
:1042C0000120F5E501240025002A00F05781077937
:1042D0005755A3424FF00505057100F2AF8140F23A
:1042E000573303600120E3E501270024F3E640F2A1
:1042F0009B3303600120DBE5002A00F0558204793E
:104300004FF0010C4FF0000EC0E608240471002BA2
:104310007FF488AD4FF4457303600120C8E5002A9F
:1043200000F038820779012500246DE7002A00F0AB
:1043300061820779944601250224AB428CF8007013
:10434000047141D927466C1CC2E701240025002ACC
:1043500000F0F081077957554FF0000C9C4280F82F
:1043600004C080F04181651C7CE70124002710E631
:10437000002A40F0E981012404E401240025CDE471
:10438000002A00F0058205794FF0010C00275CE45B
:1043900040F24E33036001208AE540F25A33036055
:1043A000012085E5002A00F0018290F804C0012573
:1043B000002713E5814C0125276800249EE540F283
:1043C00052330360012073E54FF4557303600120FD
:1043D0006EE501240025002A00F0DC80077907E65D
:1043E000002A00F0CC8105794FF0010C4FF0000E4F
:1043F000E1E440F21B330360012059E540F21A3337
:104400000360012054E5002A00F0D28104794FF0C6
:10441000010E0027C7E44FF453730360012047E502
:1044200040F24D330360012042E540F2193303604E
:1044300001203DE540F24B330360012038E54FF4A5
:1044400046730360012033E540F24A3303600120E4
:104450002EE540F247330360012029E540F217338F
:104460000360012024E540F21633036001201FE5BC
:1044700040F24633036001201AE540F2293303601D
:10448000012015E5A34202717FF668AE013405E410
:104490000D6AA3422D78057140F24381254601340F
:1044A00002E640F245330360012001E54FF44A7310
:1044B00003600120FCE44FF4517303600120F7E432
:1044C0000324AB42047140F244812C46013535E6A9
:1044D0000224AB42047140F242816C1C88E6052440
:1044E000BB4204717FF602AE7C1CF4E424249D429E
:1044F0000471E0D26C1C0025A3420571D1D90134AE
:104500001025A3420571B3D901340125A3420571D9
:104510009FD92C440525A342057195D90134242542
:10452000A342057186D901340125A34205717FF6A6
:1045300072AF2C440325A34205717FF671AF01349D
:104540008D7D0571A3427FF623AF01340425A3427C
:1045500005717FF64AAC651C24279D420771BFF4A4
:104560002EAF023402259C420571BFF4D4AA651C0B
:1045700002279D420771BFF427AF3C440525A342A3
:1045800005717FF6ACAE651C24279D420771BFF410
:1045900094AE02340625A34205717FF630AD0D7D41
:1045A0000571651C9D42BFF4F8AE02348D7D057126
:1045B000A3427FF679AC013470E600BFA80B00205F
:1045C00040F22F330360012072E4A34202717FF6B0
:1045D00054AF894D2F6801347D780571A3427FF671
:1045E000EDAC651CFFF78BBB40F236330360012056
:1045F0005EE40025A34205713FF650AF4FF46473AB
:104600000360012054E440F24333036001204FE48F
:1046100002EB070C7C1C5CE440F2223303600120B7
:1046200046E41719013438E62F4602EB040C651CEA
:1046300082E602EB050C27460135B5E52F4602EB75
:10464000040C651CCBE42F4602EB040C651CF9E559
:1046500040F21533036001202AE402EB0C0E0CF14A
:104660000105FFF74ABB0224AB4204713FF62DAFB0
:1046700040F27E33036001201AE40424BB4204713B
:104680007FF699AA01370D7A6DE40A24AB420471D2
:1046900040F290806C1C5AE60B24012B0471D7D990
:1046A0000324022791F814C080F804C0BB427FF6AF
:1046B000DAAE0227A34207717FF6D0AE013402279B
:1046C000A34207717FF6BBAE01340227A3420771F4
:1046D0007FF6ABAE01344F7E0771A3427FF68EAEFC
:1046E00001340027A34207717FF683AE0134FFF740
:1046F00049BA571901353C70FFF70ABB0225A3429E
:1047000005717FF65DAF01344D7E0571A3427FF6E2
:1047100081AD651CFFF7FCBA541901352770FFF70E
:10472000F7BA40F28B3303600120FFF7C1BBD51904
:10473000013716E49C420271BFF456AF01340025E4
:10474000A3420571E5D894E5077994460124FFF763
:1047500017BA40F2793303600120FFF7A9BB40F29A
:104760002E3303600120FFF7A3BB0124ADE7012432
:1047700032E70124BFE60124E2E6012499E701249F
:10478000D8E60124DBE7022401278BE70124C6E6F3
:104790000124BFE60124B7E70124B1E60124A0E724
:1047A00001248CE70124B0E6012494E70124CDE63E
:1047B0000124B9E640F2353303600120FFF778BBEE
:1047C000174605793D700124FFF768BA0125FFF708
:1047D0009FBA0127FFF7C7BB0125FFF790BA012455
:1047E0005CE51446CFE60124FFF775BB0024D6E64E
:1047F0000024B0E61446BAE6A80B00204360CA695C
:104800009A4205D201F12802026000208B677047AE
:104810008A6910B40260C8698C690A6FC01A1C44A6
:104820001A44C86100308C6118BF01200A675DF826
:10483000044B704780B90B681A7B202A0AD110B547
:104840000722044603F10E0103F1180050F031FC79
:10485000204610BD06207047032070472DE9F04325
:104860000B7889B00E4605460E2B22D8DFE803F000
:104870001C0C1C1C21264B212108211C1C1C1C006B
:10488000C3690BB1032198472B680024C3E91E4478
:10489000C3E9204403F134025A671C845C62DC6281
:1048A000204609B0BDE8F0830024204609B0BDE8E9
:1048B000F0830624204609B0BDE8F0834B78D9097F
:1048C0004FEA531239D1012AF3D1B3780768202B6C
:1048D00078D0222BEDD1B6F80740002CE9D1B6F8FC
:1048E000033097F820203B8402F0010203F001031B
:1048F0009A42D9D0C269002B00F01081002AD3D08F
:1049000002219047CCE7037A897893B1827A093003
:104910008AB1EA7A825C8A42C6D00A06F47800F14B
:104920009680012CC0D01BD3032CBDD00324B7E745
:1049300000235B78FFDE1378FFDE12F0030264D001
:10494000012AB6D1B378212BB3D1B6F80720072AB4
:10495000AFD10168701C183100F05CFA04469FE783
:104960002E68012B06F10C00E2D96A7B012A05F1C1
:104970000C0372D98949AA7BCDE905101344B26AA8
:1049800093F80190002A73D1F16FF36AB267C6E918
:104990001F21002B00F0BF8006F12C0393E80300D9
:1049A00006F1240383E803004846F26205A9FEF7F6
:1049B00067FF0446EB69002B3FF472AF28460021E5
:1049C00098476DE7B6F80720072A7FF472AF3B736C
:1049D000B6F807300024DBB27B7320460E37CDE9F2
:1049E0000573079400F0A0FD204605A9FEF734FFEB
:1049F000044630B96A4B049503A9039300F01CFDEB
:104A00000446002000F098FD4AE703F01F03012B45
:104A10007FF44FAFB478062C7FF44BAF05A8039218
:104A200000F01EFD0DF10C0C0746F2783179CDF83F
:104A300000C028463B46FDF79FFF05283FF430AFF6
:104A40003946701C039A00F0E5F9044628E73CB1AA
:104A5000032C0CBF0024032422E700231B78FFDE75
:104A6000EB69002B3FF420AF28460121984717E758
:104A7000D6F88440706A06F1340CA24228BF224660
:104A800061469046674650F014FBF26FF16AA4EB62
:104A9000080307EB080C42440020C6E91DC3C6E921
:104AA0001F02002961D006F12C0797E8030006F1E8
:104AB00024044FF0000884E80300C6F82C80002B83
:104AC00055D0B26A93420ED25AE097E8030084E8C8
:104AD0000300B36FC6F82C80002B48D0B26AD6F81A
:104AE00074C09A424CD86146706A50F0E2FAD6E936
:104AF0001D32B16AC6F880100B44521AC6E91D3245
:104B0000EB6913B1002128469847F36A002BDCD1EA
:104B1000736200244EE7002474624BE70AB103215C
:104B200090472B7A012B7FF603AF6B7B05F10C04CA
:104B3000002B93D0AB7BE05C04F02CFB2B7A012B99
:104B40007FF6F6AE6B7B012B87D9AB7B1C4460787C
:104B500004F020FB002407F134037C62FC62C7E907
:104B60001E44C7E920447B679AE60023D0E7736AB6
:104B7000002BCED0484605A9FEF782FE044619E771
:104B80001A466146706A50F094FAD6E90932B16F5C
:104B9000F167521A0B44C6E90932E9E7FD47000004
:104BA0003548000003681B8CDB071CD5037A012BFA
:104BB00016D910B5437B84B000F10C040BB91B78F7
:104BC000FFDE0B46817B605C91060CBF0124002454
:104BD00001A9CDE901320394FEF73EFE04B010BDF9
:104BE00000235B78FFDE0820704700BF0368D3F81E
:104BF0008000704730B50468238CDB0783B034D560
:104C0000A56FDDB9636A002B32D1C4E90912027ABB
:104C1000012A28D9417B012900F10C0221D9837B8B
:104C20001549009113440C34587801946946FEF7F5
:104C300027FE002808BF922003B030BD954228BF50
:104C400015462A460846616F50F033FAD4E91D3202
:104C50000020521B2B44C4F88050C4E91D3203B01D
:104C600030BD1B78FFDE5B78FFDE082003B030BD6F
:104C7000112003B030BD00BF853A000070B50C466E
:104C800006680020154600F04FFC631E012B0BD870
:104C9000338C234214BF012300232B600024002007
:104CA00000F04AFC204670BD0624002000F044FCC1
:104CB000204670BD002070472DE9F04F4B6885B04D
:104CC000002B75D00D461446CDE9000203F0D6FE48
:104CD000EE68A64228BF26468246002E00F081805C
:104CE0004FF000094A46CB464FF0010814E00AEBAA
:104CF0000200224650F0DDF9D5E902321B1B141BDD
:104D0000C5F804B0C5E902342BB3002C08BF4FF03E
:104D100000083A46002E38D0D5E90113B3421C46AC
:104D200028BF3446361BA7180029E0D193B1284686
:104D3000524450F8101B4B68D3F804902346C847E0
:104D4000D5E902321B1B141BC5E902342BB34FF00B
:104D50000109DAE7EC68B9F1000F1ED134B3296814
:104D6000002935D0CDF808B003E0AB6829680133DD
:104D7000AB604B6800225C6802A80123A0470028B2
:104D8000F3D128613A46002EC6D1009BC3F800A09B
:104D90005F60404605B0BDE8F08F2B681B6819685E
:104DA00029608CB9A0464FF00109B2E7C846B0E7C8
:104DB0000B681B681B68002B84D18B68002B81D18A
:104DC000C0E900339846E4E74FF001090029C9D152
:104DD0006960002FD9D0019BBB4288BF4FF000080B
:104DE000D3E737464FF00108CFE700BF08B50020F2
:104DF000FEF7C4FC8020BDE80840FEF7BFBC00BF42
:104E000008B50020FEF7CAFC8020BDE80840FEF788
:104E1000C5BC00BF70B5C38893421D4628BF154668
:104E2000934284B00E461DD8002200200392CDE9A3
:104E3000016500F079FB01A98020FEF70DFD044615
:104E400028B1002000F078FB204604B070BD03F0CC
:104E500015FF802812D0002000F06EFB10242046A1
:104E600004B070BD8020144603F008FDB4FBF0F3DD
:104E700003FB1042B2FA82F25209D6E7054A064B0A
:104E800092E8030083E80300002000F055FB204671
:104E900004B070BD806C0500D80B00202DE9F04FE8
:104EA0000B78062B87B07BD010D90D2B69D02AD870
:104EB0000B2B06D00C2B2FD1B34A1378002B40F0CC
:104EC000A0800024204607B0BDE8F08F022BF8D068
:104ED00045D9032B25D0052B1ED10DF10D008DF8E2
:104EE0000C3003F069FE9DF80D20A84D002102F062
:104EF0001F032960032B00F23D81DFE813F014014A
:104F0000E300B600AF000E2B19D0852B04D19E4BC9
:104F10001A78032A00F030810624204607B0BDE845
:104F2000F08F9B4800F0E4FD0028CAD0994B012285
:104F30001A60BFF36F8FBFF34F8F0024C2E7924B0D
:104F40001A78012ABDD0944994480A78012422F0A5
:104F500002021C700A700024FDF7C4FEB2E7012BA8
:104F6000DAD1894B1A78032AD6D08B498B480A7834
:104F7000032422F002021C700A700624FDF7B2FE20
:104F8000A0E74FF08042804BD2F838141A78C90756
:104F900033D5022A95D0804980480A780224D6E782
:104FA000C87803280D4600F0EC80784E3368002B5B
:104FB00000F00B8100223260716898470446C8B93E
:104FC0003368002B00F0EE80AB78002B7FF479AFD4
:104FD00003F018FE76E76C4C2378043B012B00F2BB
:104FE000F6809DF80F30002B00F06A81012B00F055
:104FF0007881072403F038FE64E7012A3FF461AFAB
:10500000A1E7654C65482178002321F00201217059
:1050100013701C46FDF766FE54E7062900F01E815A
:10502000082900F00A81C9B95D4C0222204650F0DF
:1050300064F8594A23781278960743F0010148BF73
:1050400043F0030321700DF10D0048BF23700222CD
:105050005349FFF7DFFE0446062C03D103A8FEF7F1
:10506000E5FB0446002C7CD0C4E79DF81100040742
:1050700007D003A9FEF7C4FB06280446F2D19DF829
:105080000D2012F0600F75D19DF80E303E4A9DF84C
:1050900011401278012B00F09C80C0F0AD80032BF2
:1050A00068D104F00F03072B64D8BDF80F10002956
:1050B00060D1052A02D0002B40F08980204603F001
:1050C000E1FC4EE001A99DF81100FEF76FFB0646DA
:1050D000002872D003AA9DF80410FEF78DFB062865
:1050E0000446BFD19DF80D3013F0600F82D1264ADF
:1050F0009DF8041012789DF80EC0DF0940F0C380BF
:10510000BCF10B0F7FF476AF052A60D1BDF80F30EC
:10511000FF2B3FF66EAF30469DF80F20FEF7C4FB25
:105120000446F4B166E7C2F34114002C96D1D209CB
:105130009DF80E107FF471AF03296FD009293FF459
:105140004AAF01298AD1BDF80F30012B86D1FEF775
:105150000DFB002800F0B2800F4A137823F0020301
:1051600013702B682BB303F089FD044600287FF4ED
:10517000A8AE2DE706243DE7074908480A7804242D
:10518000F7E61C469EE600BFB80B0020D80B0020B7
:10519000E00B00205C700240D40B0020486C05003E
:1051A000E40B0020994B1B68082B08D003F052FD3C
:1051B00088E603F04FFD002484E610241AE7944BA0
:1051C0001B68002B3FF47DAEF0E70E2412E70824A5
:1051D00010E704F00F03072BCCD8BDF80F100029FF
:1051E000C8D1052A01D0002BF1D1204603F0D4FC10
:1051F000204603F053FCB4E7052A01D02007E6D18E
:10520000204603F0A7FC8349022208800DF10D001F
:10521000FFF700FE0446002CA3D0EBE6BDF80F30EC
:10522000012B7FF41BAFFEF7A1FA002846D07A4A83
:10523000137843F00203137093E77849097805293E
:1052400039D004297FF40AAF724A14700DF10D00B1
:1052500001227049FFF7DEFD0446FDE69DF81020AF
:10526000022A60D0032A48D0012A7FF4F7AEBDF8A5
:105270001330002B9DD00DF10D0012226849FFF76D
:10528000C9FD0446E8E6BCF1000F72D0BCF10A0F7C
:105290007FF4B0AE052A9AD13046FEF745FB5D4952
:1052A0003A4608700DF10D00FFF7B4FD0446002CDE
:1052B0003FF457AF9EE6574B1A70C7E70F2499E6A5
:1052C000FEF79EFB2378042B3FF44BAF524A554820
:1052D0001378042123F0020313702170FDF702FDFF
:1052E0003FE7FEF727FB2378052B3FF43AAF052372
:1052F0004C482370FDF7F6FC33E7BDF81330002B64
:105300003FF457AFBDF811109DF80F0000F0D8F82A
:10531000014600283FF4A2AE0DF10D000A78FFF718
:1053200079FD044698E6BDF81320002A3FF441AF0A
:10533000092A28BF09229046FEF732FAA3460646FC
:105340004FF0090A36B3CDF804B0002700E001376A
:1053500072680123D2F804903146002201A8C847A0
:105360000028F4D1337A326823441668BA44DCB298
:10537000E8E7052A7FF42BAF264B0DF10D00194607
:105380000222A3F800C0FFF745FD0446002C3FF4BD
:10539000E8AE2FE61F4E2449304642464FF089FEC4
:1053A0003471A6F802A0FEF7E1F918B1F37943F0E1
:1053B0002003F371FEF7F4F91C4BBDF813201860BD
:1053C0000020C3E90168DA6000F0AEF818498020D7
:1053D000FEF756FA044630B1002000F0ADF8062C76
:1053E0007FF408AE3AE603F049FC802804D020465A
:1053F00000F0A2F81024FDE50E4B93E8030085E8C9
:105400000300204600F098F8ABE600BF3001001022
:1054100034010010E40B0020D40B0020B80B002056
:105420006C6C0500486C05004C6C0500BC0B002042
:10543000986C0500806C050038B505460C4603F0F5
:105440001DFCA84207D194E80300044A82E8030047
:105450000023184638BD1023184638BDD80B00204D
:1054600008B1402303600148704700BFE40B0020EF
:1054700070B54FF0805286B0D2F8A830D2F8A42090
:1054800000926FEA83436FEA93439BB202A80A4AF1
:105490000A4E0D2150F0DEF902AD002404E015F8AB
:1054A000013B06F8013B013402A850F026FA844281
:1054B000F5D306B070BD00BFA06C050058390120BF
:1054C00068B1052823D8154B185CF8B1144B10B5FA
:1054D00053F82040ECB123781BB9A01C10BD114833
:1054E00070470020FFF7BCFF2278A2B100230133F0
:1054F000DBB220F8132014F8012F002AF7D1013372
:105500005B00DBB243F44073038010BD70470020A2
:105510007047204610BD40F20233F5E7186D0500D4
:10552000006D0500AE6C050072B6024A13680133C7
:1055300013607047240C0020034A1368013B13607A
:1055400003B962B6704700BF240C0020F8B5234EA3
:105550004579234C234F0346234847F82520801BD9
:1055600004EBC506C0083679000486BB1A680D88AE
:10557000C2F8085593F904208978002A1FDB02F14C
:10558000604202F561424901C9B282F8001393F901
:105590000420164F1649012602F01F05520906FA8B
:1055A00005F547F822505A7904EBC20540F0030094
:1055B0002E7144F83230FCF715F90020F8BD0D4D7E
:1055C00002F00F0249011544C9B22976DFE740F025
:1055D00002000949FCF706F90820F8BDC0E70500FC
:1055E000280C0020300C0020E8E7050000E100E076
:1055F0004C6D0500FCEC00E0286D050003680122FD
:105600001A607047036801225A607047F0B404685A
:105610004FF480358D40C4F8085306688C00C6F8F6
:10562000485304F5A0740668A4B20027375182B02D
:1056300036590468019601F5A87122F07F42019E57
:1056400044F821200268C2F8445313B10368C3F838
:10565000045302B0F0BC70472DE9F04788464FF480
:105660008037016807FA08F7C1F848730168C1F884
:105670000873064600684FEA88040119D0F80455FB
:10568000D1F84005C1F8405504F5A074A4B23168C2
:105690004FF0000941F8049082B0401B0959009175
:1056A00020F07F4001289A4622F07F45009B0BD1D5
:1056B000264B4FF4806043F001039847336843F86A
:1056C00004901B590193019B3368D3F80445C3F838
:1056D00044732B1B23F07F43012B08F5A87817D1C7
:1056E00030681A4B013540F8285043F001034FF45D
:1056F000806098473268D2F804359C4222D1C2F8C3
:10570000447333680020C3F8047302B0BDE8F08727
:10571000336843F828503268D2F804156B1ACAF17E
:10572000FF1A013B0AF57F4A23F07F439A4509D3CC
:10573000002BE4D1013542F828503268D2F8043504
:105740009942DCD00D2002B0BDE8F087206D050045
:1057500002680223C2F8443311B10268C2F804336C
:10576000704700BF0368D3F8040150B1002282B033
:10577000C3F80421D3F804310193019B012002B046
:10578000704770474FF48033026803FA01F1C2F8A2
:1057900048130368C3F80813704700BF890001F578
:1057A000A07189B20368585840B100225A5082B0A3
:1057B0005B580193019B012002B07047704700BF06
:1057C0000368D3F80405704790F9043005485A0976
:1057D000403203F01F03012101FA03F340F82230A5
:1057E000704700BF00E100E0024A034B10681B68ED
:1057F000184700BF280C0020300C00200A4830B4A5
:1058000000220125510902F01F0350F8214005FA3A
:1058100003F301322343592A40F82130F2D1034BDC
:105820001D70002030BC7047340C0020406B0020FD
:10583000F8B52A4B1C780CB92046F8BD00FB01F1E5
:105840004B1EB3F5306F2DD220292ED800242346CD
:10585000234F02E0592B144424D03F2B38D94F2B2F
:1058600038D9532B8CBF4FF430624FF400725D096E
:1058700003F01F0657F8251021FA06F010F001007A
:1058800003F10103E6D0174B01201C4400FA06F691
:1058900021EA06062046002147F825604FF02DFC3E
:1058A0002046F8BD00242046F8BD4029CED9B1F5E8
:1058B000807F03D84FF480544023C9E7B1F5007FBF
:1058C0008BBF4FF420544FF4005454235023BFE7B0
:1058D0004022CCE74FF48072C9E700BF406B002044
:1058E000340C0020400C0020174B1B782BB320B346
:1058F000002210B41346154C0DE03F2B1ED94F2B40
:105900001ED9532B8CBF4FF430614FF4007101331B
:10591000592B0A440ED0A1188842EED158090C49DF
:1059200003F01F0351F82040012202FA03F323433E
:1059300041F820305DF8044B704770474021E6E79E
:105940004FF48071E3E700BF406B0020400C002063
:10595000340C002099B110B4B2FBF3F403FB14240F
:10596000A4B244B9C0E9001484608281C381204696
:105970005DF8044B704709205DF8044B70470E201A
:10598000704700BF30B482B050E8013F9DB2C48977
:1059900025448489A54228BF2D1B0489A54202BF46
:1059A000BFF32F8F002207E0C5EA030540E801544A
:1059B000002CE9D14FF001028DF803200193019BE7
:1059C0009DF803200B602AB10B880068184402B0D0
:1059D00030BC704702F0FF031846F8E70A884B888E
:1059E0009A4201D00020704750E8012FC2EA0242DB
:1059F00040E80123002BF7D10120704730B482B07A
:105A000050E8023F1FFAA3F5C488A54202BFBFF3C6
:105A10002F8F00220DE0C48925448489A54228BF28
:105A20002D1BC3EA054540E80254002CE8D14FF095
:105A300001028DF803200193019B9DF803200B6068
:105A40002AB14B880068184402B030BC704702F09D
:105A5000FF031846F8E700BF0A884B889A4201D036
:105A60000020704750E8022FC2EA224240E8022399
:105A7000002BF7D10120704750E8002F0B4640E87B
:105A8000003C9CF0000FF7D11046704750E8003FF3
:105A900003EB010240E8002C9CF0000FF6D1104609
:105AA000704700BF50E8003FA3EB010240E8002C24
:105AB0009CF0000FF6D11046704700BF50E8003F41
:105AC0008B422CBF5A1A1A4640E8002C9CF0000F5B
:105AD000F4D11046704700BF012350E8002F42EA7E
:105AE000030C40E800C191F0000FF6D1604670470A
:105AF000002350E800CF0CEA030240E8002191F0B7
:105B0000000FF6D160467047B8B130B4D0E9011249
:105B1000521A0468D2B2531E2160DBB242B101684E
:105B20000A685C1E551C0D601370E3B2FF2BF6D1A2
:105B300003680020187130BC70470E20704700BF0A
:105B400038B504460020FFF7EFFCD4E900311A68AD
:105B50008A4215D9511E19602168A3680868258AF0
:105B600012F8012CE4681B1A0879DBB2984205FB95
:105B7000024400D20B710020FFF7DEFC204638BD46
:105B80000024F8E738B5054600200C46FFF7CCFCAA
:105B90002A681368591C1160E9682A8A641AB4FBE0
:105BA000F2F41C700020BDE83840FFF7C5BC00BF10
:105BB000826842B110B5044643690168006998479C
:105BC0000023A36010BD70470EB400B582B00399E6
:105BD00029B102AA04AB42F8043D00F0A9F802B0D2
:105BE0005DF804EB03B070472DE9F04F924683B0A7
:105BF00051450F4605461E46DDE90CB2C0F09280C5
:105C00000B464FF00108B3FBFAF39A4508F101087F
:105C1000F9D9B04538BFB04612F00109A96802D1E0
:105C2000BBF1000F54D1012402E0013E0AFB04F451
:105C3000012EFAD8B7FBF4F08245F7D93B4E02E0CB
:105C4000A968B7FBF4F0335C2A680A2B04FB1077D1
:105C500002EB010E01F1010029D0A8608EF800309E
:105C6000D5E90131994202D32846FFF7A1FFB4FBE1
:105C7000FAF4002CE4D1B9F1000F15D0BBF1000FFC
:105C800012D0C34510D92024AB682A68591CA960DA
:105C9000D454D5E901329A420BF1FF3B14D2BBF147
:105CA000000F01D0C345EFD103B0BDE8F08FA8606D
:105CB0004FF00D005054D5E9011088421DD22968DB
:105CC00001EB000E0130C8E72846FFF771FFE6E759
:105CD000930722D42024C345A5D92B684A1CAA6067
:105CE0005C54D5E9013199420BF1FF3B10D2BBF175
:105CF000000F98D0C345F0D195E728460193FFF7F0
:105D000057FFAA682968019B501C01EB020EA4E70B
:105D10002846FFF74DFFA968E9E7002E0CBF3024A5
:105D20002024D8E74FF0010873E700BF6C6D050031
:105D3000002900F0B9822DE9F04F054687B0914661
:105D40000C460E78DFF8C8A64FF00D0B13E0AB68D9
:105D500028680A2E03F1010200EB030100F04B82D8
:105D6000AA600E70D5E901329A4280F01B81267834
:105D7000002E00F01E810134002E00F01A81252E25
:105D8000E5D12346002713F8012B2D2A00F0E380EC
:105D9000302A00F0E4802B2A00F0D4802A2A00F078
:105DA0000D81A2F13006F1B2092903D97DE2A1F1FA
:105DB00030060346184606EB860110F8012BA2F1C7
:105DC0003004092C02EB4101F1D92E2A00F00281A6
:105DD0004FF00008013301E013F8012B02F0FB0142
:105DE00068291C46F8D0253A532AC0D801A353F895
:105DF00022F000BFDF6100006F5D00006F5D0000FA
:105E00006F5D00006F5D00006F5D00006F5D000062
:105E10006F5D00006F5D00006F5D00006F5D000052
:105E20006F5D00006F5D00006F5D00006F5D000042
:105E30006F5D00006F5D00006F5D00006F5D000032
:105E40006F5D00006F5D00006F5D00006F5D000022
:105E50006F5D00006F5D00006F5D00006F5D000012
:105E60006F5D00006F5D00006F5D00006F5D000002
:105E70006F5D00006F5D00006F5D00006F5D0000F2
:105E80006F5D00006F5D00006F5D00006F5D0000E2
:105E90006F5D00006F5D00006F5D00006F5D0000D2
:105EA0006F5D00006F5D00006F5D00006F5D0000C2
:105EB0006F5D00006F5D00006F5D00006F5D0000B2
:105EC000C36100006F5D00006F5D00006F5D00004A
:105ED0006F5D00006F5D00006F5D00006F5D000092
:105EE0006F5D00006F5D00006F5D0000675F000088
:105EF000496100006F5D00006F5D00006F5D000094
:105F00006F5D0000496100006F5D00006F5D000083
:105F10006F5D00006F5D00006F5D00006F5D000051
:105F2000B16000006F5D00006F5D0000296000003F
:105F30006F5D00000D6000006F5D00006F5D000090
:105F4000C361000047F004071C46234613F8012BE9
:105F50002D2A7FF41DAF47F001071C46F5E747F0F7
:105F600002071C46F1E7D9F800301A1DC9F80020D5
:105F70001E78AB680A2E0CD12A68591CA96002F859
:105F800003B0D5E90123934203D32846FFF710FE5F
:105F9000AB682A68591CA960D654D5E901329A42E7
:105FA000FFF4E5AE2846FFF703FE2678002E7FF4C7
:105FB000E2AE2B7B23BB07B0BDE8F08FD9F8002001
:105FC000111DC9F80010166862782E2A04F102002B
:105FD0007FF4FEAE5A78A2F13003092B00F2BD81A6
:105FE0004FF0000808EB880802EB480810F8012F72
:105FF000A2F13003092BA8F13008F3D90346E9E6F2
:10600000284607B0BDE8F04FFFF7D2BDD9F8003001
:106010001A1DC9F8002019680197434600960A2204
:106020002846FFF7E1FDA2E6D9F800301A1DC9F8AD
:106030000020D3F80080FB0700F1E880B8F1000FE2
:1060400000F0A18140464FF058FC0746BE4215D9EA
:10605000A6B1202100E08EB1AA682B68501CA86070
:106060009954D5E901329A4206F1FF3604D3284605
:106070000391FFF79DFD0399BE42ECD108F1FF3873
:1060800018F8016F002E3FF472AEAB6828680A2E34
:1060900003F1010200EB030100F09081AA600E7091
:1060A000D5E901329A42EBD32846FFF781FDE7E7B5
:1060B000D9F80020131DC9F80030AB6829681768AB
:1060C000581C3022A860CA54D5E90123934280F0BD
:1060D000E6802A68581C7821A860D154D5E90123AC
:1060E000934280F0D7800F2F03D93A4612090F2A26
:1060F000FCD84FF080560DE0AA6081F80080D5E909
:1061000001329A4202D32846FFF752FD36093FF486
:106110002EAEAB68B7FBF6F21AF802802868B8F129
:106120000A0F06FB127700EB030103F10102E3D132
:10613000AA6000F803B0D5E901329A4280F04981A3
:106140002B6899180132D7E7D9F800301A1DC9F821
:106150000020196881EAE173A3EBE173092B40F396
:106160000E81AA480122A0FB03C3DB08092B02F120
:106170000102F8DC4245134638BF4346039307F05B
:106180000203002E40F09580002B00F0B780B8F19C
:10619000000F00F0F680F80740F1B0800029C0F24F
:1061A000FF807A0700F1C88007F00303022B00F09C
:1061B000A780CDE9006743460A222846FFF714FD71
:1061C000D5E5D9F800301A1DC9F8002019680197E3
:1061D0004346009610222846FFF706FDC7E5AB6848
:1061E0002A68581C2521A860D154D5E901329A4269
:1061F000FFF4BDADD6E6AA6000F803B0D5E90132E0
:106200009A423FD2296811440132A9E54146A1EBE7
:10621000080311F8017BD7B1AB68D5F800C00A2F8D
:1062200003F101020CEB030000F0AF80AA600770DD
:10623000D5E901329A42EAD328460391FFF7B8FC28
:106240000399A1EB080311F8017B002FE4D19E42D2
:106250007FF68DAD202702E0002E3FF488ADA968BF
:106260002A68481CA8605754D5E90121914206F1DB
:10627000FF3604D328460393FFF79AFC039BB342EF
:10628000EAD174E52846FFF793FCAB6829685A1CED
:10629000194465E52846FFF78BFCAB6823E72846E1
:1062A000FFF786FCAB6814E77047184600262346C4
:1062B0008BE5002920DB7A071ED41BB1B8F1000F53
:1062C0003FF46CAFF8073FF569AFBEB1039BB34233
:1062D000BFF464AF2023AA68501CA86028688354C8
:1062E000D5E90102824206F1FF3640D236B1039A67
:1062F000B242F0D1164651E7013EDEE700264DE7F7
:10630000B8F1000F7FF455AF002E6AD0039BB34263
:10631000BFF44FAF3023AA68501CA860286883548C
:10632000D5E90102824206F1FF3618D2002E58D07C
:10633000039AB242EFD13CE7AA68531CAB602B68CA
:106340002B209854D5E901329A42FFF42DAF28460C
:106350000491FFF72DFC049926E7034638E528460B
:10636000CDE90413FFF724FCDDE90413DEE728463A
:10637000CDE90413FFF71CFCDDE90413B6E70122A5
:10638000F8E646460AE7474660E6AA600CF803B01E
:10639000D5E901329A4226D22B689818013245E796
:1063A000AA68531CAB602B682D209854D5E90132A4
:1063B0009A42C1F10001FFF4F7AEC8E7AA6000F805
:1063C00003B0D5E901329A4217D22968114401324B
:1063D00064E62846FFF7ECFBA9682B684A1C1944C1
:1063E0008AE60026E5E628460391FFF7E1FBA86868
:1063F0002B680399421C184418E72846FFF7D8FB7E
:10640000AB6829685A1C194448E600BFCDCCCCCCF7
:106410006C6D0500FFF778BB2DE9F041058ACE1CB5
:10642000043D2E440746B6FBF5F6FFF789FB78B32B
:10643000F6B24FF48073013E0446C5800760838046
:1064400027D08046002509E06379AE4203F10103BD
:106450006371C8F80000076080461AD03846FFF71D
:106460006FFB01350028EFD16679721E14D02346E8
:10647000013082421B68FBD11F684EB100252368A2
:106480002146013538461C46FFF77CFBAE42F6D16B
:1064900000242046BDE8F0812768EFE704300121A1
:1064A000FFF7F4BAF8B5012104460430FFF7FAFA11
:1064B000C0B200B1F8BD6679721E12D02346013019
:1064C00082421B68FBD11F68002EF3D00025236891
:1064D0002146013538461C46FFF754FBAE42F6D143
:1064E000F8BD2768F2E700BF2DE9F843C788467971
:1064F00007FB06F6043E02EB030C0446664503F177
:10650000040015468846B0FBF7F238BFF51A07FBC2
:10651000120012B1013A2468FCD13E1AAE4228BFE3
:106520002E469DB14FF000090430AD1B2044324689
:1065300008EB09014EF0BDFDAF42B14424683E4670
:106540004FF0000028BF2E46002DEDD1BDE8F883A6
:106550002DE9F843C7884679154607FB06F6043E41
:1065600005EB030C1A1D664504468846B2FBF7F09E
:1065700038BFF51A07FB102110B101382468FCD18F
:106580007E1AAE4228BF2E469DB14FF0000904315D
:106590002144AD1B324608EB09004EF08AFDAF42A4
:1065A000B14424683E464FF0000128BF2E46002D1E
:1065B000EDD1BDE8F88300BF826800239360826854
:1065C0001361826853618268D36082685360826815
:1065D0001360704770B54468064620680D4618B9C8
:1065E00008E02468206828B1B36829469847002845
:1065F000F7D120682860256070BD00BF4368186827
:1066000008B102681A60704743681868704700BF95
:106610004068036873B18B4203D107E0814204D024
:10662000034618680028F9D1704718460B680360C4
:10663000012070471846704710B570B101280BD182
:106640000D4C2369A0703BB1D3E9002301202261E6
:1066500098472369002BF7D110BD074CA36801228E
:106660006270002BF8D0D3E900230020A260984785
:10667000A368002BF7D1EFE7446B002038B50A4C34
:1066800023786BB909486360A3602361E36000F07D
:10669000D1F8054600F0DCF801232370284638BD08
:1066A0008525284638BD00BF446B002039660000B0
:1066B00038B5154CA378054673B110B14368012075
:1066C00098470020FEF730FFE3680133E3600020C5
:1066D000BDE83840FEF730BF03F0FF00FEF724FFAF
:1066E00065B1226942B1954208D0134601E09D424E
:1066F00004D01B68002BFAD12A602561E368002BC7
:10670000E2D100F0BBF8DFE7446B002038B5084C5D
:106710000020FEF709FFE368013BE360E56815B977
:1067200000F0C4F8A5700020BDE83840FEF704BFB3
:10673000446B00204FF08043D3F81804C0F30040AE
:10674000704700BF38B5154C6378054673B110B17A
:106750004368002098470020FEF7E6FE6368013397
:1067600063600020BDE83840FEF7E6BE03F0FF009E
:10677000FEF7DAFE65B1A26842B1954208D0134631
:1067800001E09D4204D01B68002BFAD12A60A5606D
:106790006368002BE2D100F095F8DFE7446B00203E
:1067A00038B5084C0020FEF7BFFE6368013B63600C
:1067B000656815B900F098F865700020BDE83840AC
:1067C000FEF7BABE446B002010B5074C23784BB9D6
:1067D000064B002808BF184600F0ECFD08B901235D
:1067E000237010BD852010BD586B0020906D0500F2
:1067F00010B5044600F016FE00F01CFE204600F026
:10680000FFFD00F007FE002010BD00BF08B500F03E
:1068100009FEBDE8084000F00DBE00BF50E8002FA3
:1068200002EA010340E8003C9CF0000FF6D110465C
:10683000704700BF054A13792BB9012110605371CD
:106840001846117170478520704700BF5C6B0020AF
:10685000084B1A68D20704D4C021012283F8001320
:106860001A604FF08041044A0123C1F818351370B3
:10687000704700BF00E100E06539012010B4094B0A
:10688000094A0021196083B01B680193019C4FF0F5
:10689000804102200123C1F80403136003B05DF8B6
:1068A000044B70470401004008000040044B0122E3
:1068B0001A604FF08042D2F81834DB03FBD47047E3
:1068C0000C000040074B00221A6082B01B68019345
:1068D00001994FF080430122C3F804231A6002B0EB
:1068E000704700BF00010040074B01221A604FF0C3
:1068F0008042D2F80C3403F00113B3F1011FF8D039
:10690000024B00225A717047040000405C6B00206B
:1069100010B5154B1A6882B07AB10021134A19607C
:106920001B68507900934FF080410123009CC1F80F
:10693000083310B91168537188470D4B1A6882B13A
:1069400000221A601B6801934FF080420221074B1E
:106950000198C2F808131B68012002B0BDE810407E
:10696000184702B010BD00BF000100405C6B002062
:106970000401004030B5204C94F86A5083B0002DDB
:1069800036D14FF0FF332946062204F16400C4E9F2
:106990000033C4E90233C4E90433C4E90633C4E96B
:1069A0000833C4E90A33C4E90C33C4E90E33C4E93B
:1069B0001033C4E91233C4E91433C4E9163323662F
:1069C0004EF09BFB0D4A0E4B0E491D60C02082F815
:1069D0000603402010601B68019301984FF00043AC
:1069E0000122284684F86A20C1F8043303B030BD80
:1069F000082003B030BD00BF646B002000E100E060
:106A00007C61004000600040034B93F86A00003056
:106A100018BF0120704700BF646B0020F0B5744BB5
:106A20001C1894F93050002D6ADA8E78C6F34006AF
:106A30009646002E5ED11D6A013500F0C4800924FF
:106A40000C2553F8247001375DD004F1010C53F884
:106A50002C70013700F0C280A71CAF4248D253F817
:106A60002720013200F0BC8004F1030CAC453FD27A
:106A700053F82C70013700F0B18004F1040CAC45E0
:106A800036D253F82C70013700F0A88004F1050CC1
:106A9000AC452DD253F82C70013700F09F8004F1E3
:106AA000060CAC4524D253F82C70013700F09680C8
:106AB00004F1070CAC451BD253F82C70013700F0E1
:106AC0008D8004F1080CAC4512D253F82C700137BC
:106AD00000F0848004F1090CAC4509D253F82C7005
